:100000000C942A000C9434000C9434000C943400AA
:100010000C9434000C9434000C9434000C94340090
:100020000C9434000C9434000C9434000C94340080
:100030000C9434000C9434000C9434000C94340070
:100040000C9434000C9434000C9434000C94340060
:100050000C94340011241FBECFE5D4E0DEBFCDBF29
:100060000E9443000C94BD000C940000379A3E9A05
:10007000329A0895369A389A349BFECF349A24B136
:1000800035B1C90108955F926F927F928F929F92CE
:10009000AF92BF92CF92DF92EF92FF920F931F9396
:1000A000CF93DF9311BA8FEF87BB82BB0E943600DC
:1000B000FAEFDF2EE9EE5E2E76EE672E6AEE762EF2
:1000C00050EF852E4AE1942E30EDE32E37E0F32EEB
:1000D00008EB1BE026E0A22E99E0B92E8AE0C82E9C
:1000E00080B3C82FD0E00E943A009C01C03FD105E8
:1000F00011F4D8BA0FC0CC3FD10511F478BA0EC0B4
:10010000CE3FD10511F468BA09C0CD3FD10511F435
:1001100058BA04C0CF3FD10509F4D8BACE01885FE0
:100120009040049708F488BAC43FD10529F42150BF
:100130003140B4F6C8BA19C0C53FD10529F42150E1
:10014000314074F6B8BA11C0C63FD10529F4215028
:10015000314034F6A8BA09C0C73FD10509F0C0CF75
:10016000215031400CF0BCCF98BAC7010197F1F78C
:0E01700018BAC8010197F1F7B3CFF894FFCF8A
:00000001FF
